{
  "_format": "hh-sol-artifact-1",
  "contractName": "Lock",
  "sourceName": "contracts/Lock.sol",
  "abi": [
    {
      "inputs": [
        {
          "internalType": "address",
          "name": "tokenAddress",
          "type": "address"
        }
      ],
      "stateMutability": "nonpayable",
      "type": "constructor"
    },
    {
      "inputs": [
        {
          "internalType": "address",
          "name": "",
          "type": "address"
        }
      ],
      "name": "deadLine",
      "outputs": [
        {
          "internalType": "uint256",
          "name": "",
          "type": "uint256"
        }
      ],
      "stateMutability": "view",
      "type": "function"
    },
    {
      "inputs": [
        {
          "internalType": "uint256",
          "name": "amount",
          "type": "uint256"
        },
        {
          "internalType": "uint256",
          "name": "time",
          "type": "uint256"
        }
      ],
      "name": "lockTokens",
      "outputs": [],
      "stateMutability": "nonpayable",
      "type": "function"
    },
    {
      "inputs": [],
      "name": "lockerCount",
      "outputs": [
        {
          "internalType": "uint256",
          "name": "",
          "type": "uint256"
        }
      ],
      "stateMutability": "view",
      "type": "function"
    },
    {
      "inputs": [
        {
          "internalType": "address",
          "name": "",
          "type": "address"
        }
      ],
      "name": "lockers",
      "outputs": [
        {
          "internalType": "uint256",
          "name": "",
          "type": "uint256"
        }
      ],
      "stateMutability": "view",
      "type": "function"
    },
    {
      "inputs": [],
      "name": "totalLocked",
      "outputs": [
        {
          "internalType": "uint256",
          "name": "",
          "type": "uint256"
        }
      ],
      "stateMutability": "view",
      "type": "function"
    },
    {
      "inputs": [],
      "name": "withdrawTokens",
      "outputs": [],
      "stateMutability": "nonpayable",
      "type": "function"
    }
  ],
  "bytecode": "0x608060405234801561001057600080fd5b50604051610ee4380380610ee48339818101604052810190610032919061008d565b806000806101000a81548173ffffffffffffffffffffffffffffffffffffffff021916908373ffffffffffffffffffffffffffffffffffffffff160217905550506100ff565b600081519050610087816100e8565b92915050565b60006020828403121561009f57600080fd5b60006100ad84828501610078565b91505092915050565b60006100c1826100c8565b9050919050565b600073ffffffffffffffffffffffffffffffffffffffff82169050919050565b6100f1816100b6565b81146100fc57600080fd5b50565b610dd68061010e6000396000f3fe608060405234801561001057600080fd5b50600436106100625760003560e01c80632c8e7a2114610067578063568914121461009757806358e46a73146100b557806389158d8e146100e55780638d8f2adb14610101578063ccd96eb61461010b575b600080fd5b610081600480360381019061007c919061082f565b610129565b60405161008e9190610aa2565b60405180910390f35b61009f610141565b6040516100ac9190610aa2565b60405180910390f35b6100cf60048036038101906100ca919061082f565b610147565b6040516100dc9190610aa2565b60405180910390f35b6100ff60048036038101906100fa9190610881565b61015f565b005b6101096103fc565b005b610113610728565b6040516101209190610aa2565b60405180910390f35b60036020528060005260406000206000915090505481565b60025481565b60046020528060005260406000206000915090505481565b600082116101a2576040517f08c379a000000000000000000000000000000000000000000000000000000000815260040161019990610a42565b60405180910390fd5b600081116101e5576040517f08c379a00000000000000000000000000000000000000000000000000000000081526004016101dc90610a42565b60405180910390fd5b6000600360003373ffffffffffffffffffffffffffffffffffffffff1673ffffffffffffffffffffffffffffffffffffffff1681526020019081526020016000205411610245576001600081548092919061023f90610c08565b91905055505b81600260008282546102579190610ad9565b9250508190555081600360003373ffffffffffffffffffffffffffffffffffffffff1673ffffffffffffffffffffffffffffffffffffffff16815260200190815260200160002060008282546102ad9190610ad9565b9250508190555080426102c09190610ad9565b600460003373ffffffffffffffffffffffffffffffffffffffff1673ffffffffffffffffffffffffffffffffffffffff1681526020019081526020016000208190555060008060009054906101000a900473ffffffffffffffffffffffffffffffffffffffff1673ffffffffffffffffffffffffffffffffffffffff166323b872dd3330866040518463ffffffff1660e01b8152600401610363939291906109a0565b602060405180830381600087803b15801561037d57600080fd5b505af1158015610391573d6000803e3d6000fd5b505050506040513d601f19601f820116820180604052508101906103b59190610858565b9050806103f7576040517f08c379a00000000000000000000000000000000000000000000000000000000081526004016103ee90610a82565b60405180910390fd5b505050565b6000600360003373ffffffffffffffffffffffffffffffffffffffff1673ffffffffffffffffffffffffffffffffffffffff168152602001908152602001600020541161047e576040517f08c379a000000000000000000000000000000000000000000000000000000000815260040161047590610a62565b60405180910390fd5b600460003373ffffffffffffffffffffffffffffffffffffffff1673ffffffffffffffffffffffffffffffffffffffff16815260200190815260200160002054421015610500576040517f08c379a00000000000000000000000000000000000000000000000000000000081526004016104f790610a22565b60405180910390fd5b61053e6040518060400160405280601981526020017f77697468647261772066756e6374696f6e2072756e6e696e670000000000000081525061072e565b6000600360003373ffffffffffffffffffffffffffffffffffffffff1673ffffffffffffffffffffffffffffffffffffffff168152602001908152602001600020549050600360003373ffffffffffffffffffffffffffffffffffffffff1673ffffffffffffffffffffffffffffffffffffffff16815260200190815260200160002060009055600460003373ffffffffffffffffffffffffffffffffffffffff1673ffffffffffffffffffffffffffffffffffffffff16815260200190815260200160002060009055806002600082825461061a9190610b2f565b925050819055506001600081548092919061063490610bde565b919050555060008054906101000a900473ffffffffffffffffffffffffffffffffffffffff1673ffffffffffffffffffffffffffffffffffffffff1663a9059cbb33836040518363ffffffff1660e01b81526004016106949291906109d7565b602060405180830381600087803b1580156106ae57600080fd5b505af11580156106c2573d6000803e3d6000fd5b505050506040513d601f19601f820116820180604052508101906106e69190610858565b610725576040517f08c379a000000000000000000000000000000000000000000000000000000000815260040161071c90610a82565b60405180910390fd5b50565b60015481565b6107c4816040516024016107429190610a00565b6040516020818303038152906040527f41304fac000000000000000000000000000000000000000000000000000000007bffffffffffffffffffffffffffffffffffffffffffffffffffffffff19166020820180517bffffffffffffffffffffffffffffffffffffffffffffffffffffffff83818316178352505050506107c7565b50565b60008151905060006a636f6e736f6c652e6c6f679050602083016000808483855afa5050505050565b6000813590506107ff81610d5b565b92915050565b60008151905061081481610d72565b92915050565b60008135905061082981610d89565b92915050565b60006020828403121561084157600080fd5b600061084f848285016107f0565b91505092915050565b60006020828403121561086a57600080fd5b600061087884828501610805565b91505092915050565b6000806040838503121561089457600080fd5b60006108a28582860161081a565b92505060206108b38582860161081a565b9150509250929050565b6108c681610b63565b82525050565b60006108d782610abd565b6108e18185610ac8565b93506108f1818560208601610bab565b6108fa81610c80565b840191505092915050565b6000610912601483610ac8565b915061091d82610c91565b602082019050919050565b6000610935602383610ac8565b915061094082610cba565b604082019050919050565b6000610958601183610ac8565b915061096382610d09565b602082019050919050565b600061097b600f83610ac8565b915061098682610d32565b602082019050919050565b61099a81610ba1565b82525050565b60006060820190506109b560008301866108bd565b6109c260208301856108bd565b6109cf6040830184610991565b949350505050565b60006040820190506109ec60008301856108bd565b6109f96020830184610991565b9392505050565b60006020820190508181036000830152610a1a81846108cc565b905092915050565b60006020820190508181036000830152610a3b81610905565b9050919050565b60006020820190508181036000830152610a5b81610928565b9050919050565b60006020820190508181036000830152610a7b8161094b565b9050919050565b60006020820190508181036000830152610a9b8161096e565b9050919050565b6000602082019050610ab76000830184610991565b92915050565b600081519050919050565b600082825260208201905092915050565b6000610ae482610ba1565b9150610aef83610ba1565b9250827fffffffffffffffffffffffffffffffffffffffffffffffffffffffffffffffff03821115610b2457610b23610c51565b5b828201905092915050565b6000610b3a82610ba1565b9150610b4583610ba1565b925082821015610b5857610b57610c51565b5b828203905092915050565b6000610b6e82610b81565b9050919050565b60008115159050919050565b600073ffffffffffffffffffffffffffffffffffffffff82169050919050565b6000819050919050565b60005b83811015610bc9578082015181840152602081019050610bae565b83811115610bd8576000848401525b50505050565b6000610be982610ba1565b91506000821415610bfd57610bfc610c51565b5b600182039050919050565b6000610c1382610ba1565b91507fffffffffffffffffffffffffffffffffffffffffffffffffffffffffffffffff821415610c4657610c45610c51565b5b600182019050919050565b7f4e487b7100000000000000000000000000000000000000000000000000000000600052601160045260246000fd5b6000601f19601f8301169050919050565b7f446561646c696e65206973206e6f74206f766572000000000000000000000000600082015250565b7f546f6b656e20616d6f756e74206d75737420626520626967676572207468616e60008201527f20302e0000000000000000000000000000000000000000000000000000000000602082015250565b7f4e6f7420656e6f75676820746f6b656e2e000000000000000000000000000000600082015250565b7f5472616e73666572204661696c65640000000000000000000000000000000000600082015250565b610d6481610b63565b8114610d6f57600080fd5b50565b610d7b81610b75565b8114610d8657600080fd5b50565b610d9281610ba1565b8114610d9d57600080fd5b5056fea2646970667358221220376f6df78b4c1cd9e786be23d10a567b385face9c507a23ae59a76d92619717664736f6c63430008020033",
  "linkReferences": {},
  "deployedLinkReferences": {}
}